:100000000C9434000C943E000C943E000C943E0082
:100010000C943E000C943E000C943E000C943E0068
:100020000C943E000C943E000C943E000C943E0058
:100030000C943E000C943E000C943E000C943E0048
:100040000C943E000C943E000C943E000C943E0038
:100050000C943E000C943E000C943E000C943E0028
:100060000C943E000C943E0011241FBECFEFD8E04C
:10007000DEBFCDBF0E944C000C9459000C940000D0
:1000800084B1806184B98CB580648CBD08950DB451
:1000900007FEFDCF8EB508950E94400087B18160B4
:1000A00087B90E9447008134E1F788B1816088B93F
:0600B000F8CFF894FFCF29
:00000001FF
