S0150000746573745350495F736C6176652E73726563E9
S11300000C9434000C943E000C943E000C943E007E
S11300100C943E000C943E000C943E000C943E0064
S11300200C943E000C943E000C943E000C943E0054
S11300300C943E000C943E000C943E000C943E0044
S11300400C943E000C943E000C943E000C943E0034
S11300500C943E000C943E000C943E000C943E0024
S11300600C943E000C943E0011241FBECFEFD8E048
S1130070DEBFCDBF0E944C000C9459000C940000CC
S113008084B1806184B98CB580648CBD08950DB44D
S113009007FEFDCF8EB508950E9440000E944700E0
S11300A0813411F492E49EBD8334C1F784E48EBD9F
S10900B0F5CFF894FFCF28
S9030000FC
