:100000000C9437000C94C4000C94C4000C94C400ED
:100010000C94C4000C94C4000C94C4000C94C40050
:100020000C94C4000C94C4000C94C4000C94C40040
:100030000C94C4000C94C4000C94C4000C94C40030
:100040000C94C4000C94C4000C94C4000C94C40020
:100050000C94C4000C94C4000C94C4000C94C40010
:100060000C94C4000C94C4000100011480001124FD
:100070001FBECFEFD8E0DEBFCDBFE8E6F0E040E046
:1000800017C0B591A59135912591059107FD0CC03B
:1000900095918591EF01F92FE82F05900D92A21708
:1000A000B307D9F7FE0104C01D92A217B307E1F709
:1000B000ED36F40731F70E94BE000C94AC00F894C2
:0200C000FFCF70
:0800C200636F64655F6F6B0062
:1000CA00CF93DF93C0E01DC00E94B700D1E0DC0FE0
:1000DA00EC2FF0E0E050FF4F8083ED2FF0E0E0508E
:1000EA00FF4F108260E071E080E822EC30E040E0EF
:1000FA000E948B00892B21F485B1826085B903C0E7
:0C010A00CD2FC33108F3DF91CF91089591
:10011600CF92DF92EF926B01E82EF6018491E7FC15
:100126008081F901549147FD508185130BC08823C6
:1001360041F08FEFC81AD80AE80A2F5F3F4F4F4F9A
:10014600ECCF582F90E0851B9109EF90DF90CF9070
:0201560008950A
:10015800EC010E94C9000E94C800CE010E94CA009A
:06016800CE010E94C6005A
:0E016E008091C0008823E4F78091C6000895B8
:0C017C0084B1826084B90E946500FDCF50
:040188000C940000D3
:04018C000E945F006E
:020190000895D0
:020192000895CE
:020194000895CC
:00000001FF
