:100000000C9434000C943E000C943E000C943E0082
:100010000C943E000C943E000C943E000C943E0068
:100020000C943E000C943E000C943E000C943E0058
:100030000C943E000C943E000C943E000C943E0048
:100040000C943E000C943E000C943E000C943E0038
:100050000C943E000C943E000C943E000C943E0028
:100060000C943E000C943E0011241FBECFEFD8E04C
:10007000DEBFCDBF0E944C000C9461000C940000C8
:1000800084B1806184B98CB580648CBD08950DB451
:1000900007FEFDCF8EB508950E9440008AB18E7F85
:1000A0008AB98AB1877F8AB98AB18F7B8AB98FEF83
:1000B0008BB90E9447008F3FE1F789B189748EBDEB
:0600C000F8CFF894FFCF19
:00000001FF
