S0090000462E73726563D5
S11300000C9434000C943E000C943E000C943E007E
S11300100C943E000C943E000C943E000C943E0064
S11300200C943E000C943E000C943E000C943E0054
S11300300C943E000C943E000C943E000C943E0044
S11300400C943E000C943E000C943E000C943E0034
S11300500C943E000C943E000C943E000C943E0024
S11300600C943E000C943E0011241FBECFEFD8E048
S1130070DEBFCDBF0E946D000C9481000C94000083
S113008080E480937C00EAE7F0E0808180688083EC
S11300908081876080830895ECE7F0E09081907F11
S11300A08F70892B8083EAE7F0E08081806480830D
S11300B080917A0086FDFCCF809178009091790040
S11300C0089584B1806184B98CB580648CBD089531
S11300D00DB407FEFDCF8EB508950E94400087B190
S11300E08E7F87B90E9461000E9468008F3FE1F70C
S11300F080E00E944C0096958795969587958EBDD5
S1090100F3CFF894FFCFD9
S9030000FC
