S00F0000546573745350492E7372656389
S11300000C9434000C943E000C943E000C943E007E
S11300100C943E000C943E000C943E000C943E0064
S11300200C943E000C943E000C943E000C943E0054
S11300300C943E000C943E000C943E000C943E0044
S11300400C943E000C943E000C943E000C943E0034
S11300500C943E000C943E000C943E000C943E0024
S11300600C943E000C943E0011241FBECFEFD8E048
S1130070DEBFCDBF0E945A000C9461000C940000B6
S113008084B18C6284B983E58CBD089594B121E078
S113009030E002C0220F331F6A95E2F7422F4095E9
S11300A0942394B98EBD0DB407FEFDCF84B1282BE3
S11300B024B908950E94400066E081E00E94460051
S10900C0FBCFF894FFCF12
S9030000FC
