S00F0000546573745350492E7372656389
S11300000C9434000C943E000C943E000C943E007E
S11300100C943E000C943E000C943E000C943E0064
S11300200C943E000C943E000C943E000C943E0054
S11300300C943E000C943E000C943E000C943E0044
S11300400C943E000C943E000C943E000C943E0034
S11300500C943E000C943E000C943E000C943E0024
S11300600C943E000C943E0011241FBECFEFD8E048
S1130070DEBFCDBF0E9453000C9493000C9400008B
S113008084B18C6284B98CB581658CBD089595B1B9
S11300909B7F95B98EBD0DB407FEFDCF85B18460FD
S11300A085B98EB508950E94400087B1876087B9ED
S11300B081E40E94470083EC99E00197F1F700C0C6
S11300C000008FEF0E944700823431F488B18160D0
S11300D088B988B18D7F88B99FE32DE083E0915082
S11300E020408040E1F700C0000083E40E94470004
S11300F083EC99E00197F1F700C000008FEF0E94B4
S11301004700843431F488B18E7F88B988B1826025
S113011088B99FE32DE083E0915020408040E1F7CF
S10D012000C00000C5CFF894FFCF23
S9030000FC
