:100000000C9434000C943E000C943E000C943E0082
:100010000C943E000C943E000C943E000C943E0068
:100020000C943E000C943E000C943E000C943E0058
:100030000C943E000C943E000C943E000C943E0048
:100040000C943E000C943E000C943E000C943E0038
:100050000C943E000C943E000C943E000C943E0028
:100060000C943E000C943E0011241FBECFEFD8E04C
:10007000DEBFCDBF0E9453000C9487000C9400009B
:1000800084B18C6284B98CB581658CBD089595B1BD
:100090009B7F95B98EBD0DB407FEFDCF85B1846001
:1000A00085B98EB508950E94400087B1876087B9F1
:1000B0008FEF0E944700E3ECF9E03197F1F700C0C1
:1000C0000000282F2870982F907480FF04C088B1FA
:1000D000816088B903C088B18E7F88B9283021F447
:1000E00088B1826088B903C088B18D7F88B99034A7
:1000F00021F488B1846088B903C088B18B7F88B946
:1001000087EA91E60197F1F700C00000D1CFF8949B
:02011000FFCF1F
:00000001FF
