S00F0000546573745350492E7372656389
S11300000C9434000C943E000C943E000C943E007E
S11300100C943E000C943E000C943E000C943E0064
S11300200C943E000C943E000C943E000C943E0054
S11300300C943E000C943E000C943E000C943E0044
S11300400C943E000C943E000C943E000C943E0034
S11300500C943E000C943E000C943E000C943E0024
S11300600C943E000C943E0011241FBECFEFD8E048
S1130070DEBFCDBF0E945F000C94A1000C94000071
S113008084B18E6284B98CB581658CBD089595B1B7
S11300909D7F95B98EBD0DB407FEFDCF85B18260FD
S11300A085B98EB5089595B19B7F95B98EBD0DB474
S11300B007FEFDCF85B1846085B98EB508950E9491
S11300C0400087B1876287B98EEE0E944700D82F1F
S11300D02C2F28709C2F9074C0FF04C088B18160BD
S11300E088B903C088B18E7F88B9283021F488B1DB
S11300F0826088B903C088B18D7F88B9903421F4B7
S113010088B1846088B903C088B18B7F88B983EDD6
S113011090E30197F1F700C000008FEF0E945300B5
S1130120C82FD11104C088B1806288B903C088B1D6
S11301308F7D88B983ED90E30197F1F700C000004B
S1090140C3CFF894FFCFC9
S9030000FC
