S00F0000546573745350492E7372656389
S11300000C9434000C943E000C943E000C943E007E
S11300100C943E000C943E000C943E000C943E0064
S11300200C943E000C943E000C943E000C943E0054
S11300300C943E000C943E000C943E000C943E0044
S11300400C943E000C943E000C943E000C943E0034
S11300500C943E000C943E000C943E000C943E0024
S11300600C943E000C943E0011241FBECFEFD8E048
S1130070DEBFCDBF0E9453000C946B000C940000B3
S113008084B18C6284B98CB581658CBD089595B1B9
S11300909B7F95B98EBD0DB407FEFDCF85B18460FD
S11300A085B98EB508950E94400087B1876287B9EB
S11300B08FEF0E9447008F3F21F488B1806288B996
S11300C003C088B18F7D88B983ED90E30197F1F780
S10D00D000C00000EDCFF894FFCF4C
S9030000FC
